{
  "contractName": "LogisticsTracker",
  "abi": [
    {
      "anonymous": false,
      "inputs": [
        {
          "indexed": false,
          "internalType": "string",
          "name": "barcode",
          "type": "string"
        },
        {
          "indexed": false,
          "internalType": "string",
          "name": "location",
          "type": "string"
        },
        {
          "indexed": false,
          "internalType": "uint256",
          "name": "timestamp",
          "type": "uint256"
        }
      ],
      "name": "LocationUpdated",
      "type": "event"
    },
    {
      "anonymous": false,
      "inputs": [
        {
          "indexed": false,
          "internalType": "string",
          "name": "barcode",
          "type": "string"
        },
        {
          "indexed": false,
          "internalType": "string",
          "name": "name",
          "type": "string"
        },
        {
          "indexed": false,
          "internalType": "address",
          "name": "creator",
          "type": "address"
        }
      ],
      "name": "ProductAdded",
      "type": "event"
    },
    {
      "inputs": [
        {
          "internalType": "string",
          "name": "barcode",
          "type": "string"
        },
        {
          "internalType": "string",
          "name": "name",
          "type": "string"
        }
      ],
      "name": "addProduct",
      "outputs": [
        {
          "internalType": "bool",
          "name": "",
          "type": "bool"
        }
      ],
      "stateMutability": "nonpayable",
      "type": "function"
    },
    {
      "inputs": [
        {
          "internalType": "string",
          "name": "barcode",
          "type": "string"
        },
        {
          "internalType": "string",
          "name": "location",
          "type": "string"
        }
      ],
      "name": "updateLocation",
      "outputs": [
        {
          "internalType": "bool",
          "name": "",
          "type": "bool"
        }
      ],
      "stateMutability": "nonpayable",
      "type": "function"
    },
    {
      "inputs": [
        {
          "internalType": "string",
          "name": "barcode",
          "type": "string"
        }
      ],
      "name": "getProductInfo",
      "outputs": [
        {
          "internalType": "string",
          "name": "",
          "type": "string"
        },
        {
          "internalType": "bool",
          "name": "",
          "type": "bool"
        }
      ],
      "stateMutability": "view",
      "type": "function",
      "constant": true
    },
    {
      "inputs": [
        {
          "internalType": "string",
          "name": "barcode",
          "type": "string"
        }
      ],
      "name": "getLocationUpdatesCount",
      "outputs": [
        {
          "internalType": "uint256",
          "name": "",
          "type": "uint256"
        }
      ],
      "stateMutability": "view",
      "type": "function",
      "constant": true
    },
    {
      "inputs": [
        {
          "internalType": "string",
          "name": "barcode",
          "type": "string"
        },
        {
          "internalType": "uint256",
          "name": "index",
          "type": "uint256"
        }
      ],
      "name": "getLocationUpdate",
      "outputs": [
        {
          "internalType": "string",
          "name": "",
          "type": "string"
        },
        {
          "internalType": "uint256",
          "name": "",
          "type": "uint256"
        }
      ],
      "stateMutability": "view",
      "type": "function",
      "constant": true
    },
    {
      "inputs": [],
      "name": "testFunction",
      "outputs": [
        {
          "internalType": "string",
          "name": "",
          "type": "string"
        }
      ],
      "stateMutability": "pure",
      "type": "function",
      "constant": true
    }
  ],
  "bytecode": "0x608060405234801561001057600080fd5b50610a5d806100206000396000f3fe608060405234801561001057600080fd5b50600436106100625760003560e01c806357ba11b014610067578063c8973bf614610091578063ca2efb55146100b2578063e16b4a9b146100d5578063f6ddac7414610106578063fbe3dd1f14610119575b600080fd5b61007a6100753660046106a2565b61013a565b60405161008892919061072f565b60405180910390f35b6100a461009f3660046106a2565b610237565b604051908152602001610088565b6100c56100c0366004610753565b61025f565b6040519015158152602001610088565b604080518082018252600f81526e436f6e747261637420776f726b732160881b6020820152905161008891906107b7565b6100c5610114366004610753565b61039e565b61012c6101273660046107d1565b61049e565b604051610088929190610816565b606060008060008460405161014f9190610838565b908152602001604051809103902060405180606001604052908160008201805461017890610854565b80601f01602080910402602001604051908101604052809291908181526020018280546101a490610854565b80156101f15780601f106101c6576101008083540402835291602001916101f1565b820191906000526020600020905b8154815290600101906020018083116101d457829003601f168201915b50505091835250506001919091015460ff811615156020808401919091526101009091046001600160a01b03166040909201919091528151910151909590945092505050565b60006001826040516102499190610838565b9081526040519081900360200190205492915050565b600080836040516102709190610838565b9081526040519081900360200190206001015460ff16156102d15760405162461bcd60e51b815260206004820152601660248201527550726f6475637420616c72656164792065786973747360501b60448201526064015b60405180910390fd5b6040805160608101825283815260016020820152338183015290516000906102fa908690610838565b9081526040519081900360200190208151819061031790826108dd565b506020820151600190910180546040938401516001600160a01b031661010002610100600160a81b0319931515939093166001600160a81b031990911617919091179055517f6bb50ef6a506e9e67570b71c52bbd1d6c8d109554cf81e9108fb33e69dc085139061038d9085908590339061099d565b60405180910390a150600192915050565b600080836040516103af9190610838565b9081526040519081900360200190206001015460ff1661040a5760405162461bcd60e51b8152602060048201526016602482015275141c9bd91d58dd08191bd95cc81b9bdd08195e1a5cdd60521b60448201526064016102c8565b60018360405161041a9190610838565b9081526040805191829003602090810183208383019092528483524283820152815460018101835560009283529120825160029092020190819061045e90826108dd565b506020820151816001015550507fe046533fc91597b510779256ad0ca2452c9ca2895ac9ce2515439c7f5d6820f483834260405161038d939291906109db565b606060006001846040516104b29190610838565b9081526040519081900360200190205483106105065760405162461bcd60e51b8152602060048201526013602482015272496e646578206f7574206f6620626f756e647360681b60448201526064016102c8565b60006001856040516105189190610838565b9081526020016040518091039020848154811061053757610537610a11565b906000526020600020906002020160405180604001604052908160008201805461056090610854565b80601f016020809104026020016040519081016040528092919081815260200182805461058c90610854565b80156105d95780601f106105ae576101008083540402835291602001916105d9565b820191906000526020600020905b8154815290600101906020018083116105bc57829003601f168201915b505050918352505060019190910154602091820152815191015190969095509350505050565b634e487b7160e01b600052604160045260246000fd5b600082601f83011261062657600080fd5b813567ffffffffffffffff80821115610641576106416105ff565b604051601f8301601f19908116603f01168101908282118183101715610669576106696105ff565b8160405283815286602085880101111561068257600080fd5b836020870160208301376000602085830101528094505050505092915050565b6000602082840312156106b457600080fd5b813567ffffffffffffffff8111156106cb57600080fd5b6106d784828501610615565b949350505050565b60005b838110156106fa5781810151838201526020016106e2565b50506000910152565b6000815180845261071b8160208601602086016106df565b601f01601f19169290920160200192915050565b6040815260006107426040830185610703565b905082151560208301529392505050565b6000806040838503121561076657600080fd5b823567ffffffffffffffff8082111561077e57600080fd5b61078a86838701610615565b935060208501359150808211156107a057600080fd5b506107ad85828601610615565b9150509250929050565b6020815260006107ca6020830184610703565b9392505050565b600080604083850312156107e457600080fd5b823567ffffffffffffffff8111156107fb57600080fd5b61080785828601610615565b95602094909401359450505050565b6040815260006108296040830185610703565b90508260208301529392505050565b6000825161084a8184602087016106df565b9190910192915050565b600181811c9082168061086857607f821691505b60208210810361088857634e487b7160e01b600052602260045260246000fd5b50919050565b601f8211156108d857600081815260208120601f850160051c810160208610156108b55750805b601f850160051c820191505b818110156108d4578281556001016108c1565b5050505b505050565b815167ffffffffffffffff8111156108f7576108f76105ff565b61090b816109058454610854565b8461088e565b602080601f83116001811461094057600084156109285750858301515b600019600386901b1c1916600185901b1785556108d4565b600085815260208120601f198616915b8281101561096f57888601518255948401946001909101908401610950565b508582101561098d5787850151600019600388901b60f8161c191681555b5050505050600190811b01905550565b6060815260006109b06060830186610703565b82810360208401526109c28186610703565b91505060018060a01b0383166040830152949350505050565b6060815260006109ee6060830186610703565b8281036020840152610a008186610703565b915050826040830152949350505050565b634e487b7160e01b600052603260045260246000fdfea2646970667358221220b74d2dea08ce18ac5b0e9284073cc6077b0f4d6344a521b883c9d763eba5463a64736f6c63430008110033",
  "immutableReferences": {},
  "source": "// SPDX-License-Identifier: MIT\r\npragma solidity ^0.8.0;\r\n\r\ncontract LogisticsTracker {\r\n    // Struktur data untuk produk\r\n    struct Product {\r\n        string name;\r\n        bool exists;\r\n        address creator;\r\n    }\r\n    \r\n    // Struktur data untuk lokasi/status\r\n    struct TrackingUpdate {\r\n        string location;\r\n        uint256 timestamp;\r\n    }\r\n    \r\n    // Mapping dari barcode ke data produk\r\n    mapping(string => Product) private products;\r\n    \r\n    // Mapping dari barcode ke array lokasi\r\n    mapping(string => TrackingUpdate[]) private trackingHistory;\r\n    \r\n    // Event untuk tracking\r\n    event ProductAdded(string barcode, string name, address creator);\r\n    event LocationUpdated(string barcode, string location, uint256 timestamp);\r\n    \r\n    // Menambahkan produk baru\r\n    function addProduct(string memory barcode, string memory name) public returns (bool) {\r\n        // Pastikan produk belum ada\r\n        require(!products[barcode].exists, \"Product already exists\");\r\n        \r\n        // Tambahkan produk baru\r\n        products[barcode] = Product({\r\n            name: name,\r\n            exists: true,\r\n            creator: msg.sender\r\n        });\r\n        \r\n        // Trigger event\r\n        emit ProductAdded(barcode, name, msg.sender);\r\n        return true;\r\n    }\r\n    \r\n    // Update lokasi produk\r\n    function updateLocation(string memory barcode, string memory location) public returns (bool) {\r\n        // Pastikan produk sudah ada\r\n        require(products[barcode].exists, \"Product does not exist\");\r\n        \r\n        // Tambahkan update lokasi baru\r\n        trackingHistory[barcode].push(TrackingUpdate({\r\n            location: location,\r\n            timestamp: block.timestamp\r\n        }));\r\n        \r\n        // Trigger event\r\n        emit LocationUpdated(barcode, location, block.timestamp);\r\n        return true;\r\n    }\r\n    \r\n    // Mendapatkan info produk\r\n    function getProductInfo(string memory barcode) public view returns (string memory, bool) {\r\n        Product memory product = products[barcode];\r\n        return (product.name, product.exists);\r\n    }\r\n    \r\n    // Mendapatkan jumlah update lokasi\r\n    function getLocationUpdatesCount(string memory barcode) public view returns (uint256) {\r\n        return trackingHistory[barcode].length;\r\n    }\r\n    \r\n    // Mendapatkan update lokasi berdasarkan index\r\n    function getLocationUpdate(string memory barcode, uint256 index) \r\n        public view returns (string memory, uint256) {\r\n        require(index < trackingHistory[barcode].length, \"Index out of bounds\");\r\n        \r\n        TrackingUpdate memory update = trackingHistory[barcode][index];\r\n        return (update.location, update.timestamp);\r\n    }\r\n    \r\n    // Simple test function\r\n    function testFunction() public pure returns (string memory) {\r\n        return \"Contract works!\";\r\n    }\r\n}",
  "sourcePath": "E:\\2025\\Terbaru\\htdocs\\tugasakhir\\blockchain\\contracts\\LogisticsTracker.sol",
  "compiler": {
    "name": "solc",
    "version": "0.8.17+commit.8df45f5f.Emscripten.clang"
  },
  "schemaVersion": "3.4.16",
  "updatedAt": "2025-06-05T04:57:40.177Z",
  "networkType": "ethereum",
  "devdoc": {
    "kind": "dev",
    "methods": {},
    "version": 1
  },
  "userdoc": {
    "kind": "user",
    "methods": {},
    "version": 1
  }
}